S0240000536F6E6172416E64576972656C6573735472616E736D697373696F6E2E7372656392
S11300000C9434000C94E6000C9423010C944600E8
S11300100C9446000C9446000C9446000C94460044
S11300200C9446000C9446000C9446000C94460034
S11300300C9446000C9446000C9446000C94460024
S11300400C9446000C9446000C9446000C94460014
S11300500C9446000C9446000C9446000C94460004
S11300600C9446000C94460011241FBECFEFD8E038
S1130070DEBFCDBF21E0A0E0B1E001C01D92A330FE
S1130080B207E1F70E9461000C9461010C94000036
S113009081E088B985E08A95F1F718B8089588E079
S11300A08093C10086E08093C20087E68093C400F9
S11300B00895E0ECF0E0908195FFFDCF8093C600B9
S11300C008959FEF94B981E087B91AB895B988B9B2
S11300D08AE08093690083E08DBB78940E944F008E
S11300E00FEE17EFDBEFCDEF0E9448008091020185
S11300F00E94590080910201811102C0C5B9F4CF58
S1130100863411F4D5B9F0CF8C3811F415B9ECCF8D
S11301108E3B51F705B9E8CFCF93DF931F92CDB74C
S1130120DEB78983109280001092850010928400BB
S11301308981823069F018F4813031F017C083303E
S113014059F0843079F012C082E08093810007C0B6
S113015083E08093810003C084E080938100E4E81D
S1130160F0E008C085E080938100F9CF81E08093BE
S11301708000F5CF808191818A3F9105D8F3109258
S113018081000F90DF91CF910895CF93DF9300D03A
S11301901F92CDB7DEB79A8389836B8389819A8155
S11301A0181619066CF48B810E948C0089819A813F
S11301B001979A83898389819A81181619069CF379
S11301C00F900F900F90DF91CF9108951F920F928F
S11301D00FB60F9211242F933F934F935F936F9316
S11301E07F938F939F93AF93BF93EF93FF9362E0BB
S11301F08AEF90E00E94C500809101018F5F809397
S1130200010180910101823028F0109201011092C5
S1130210020107C080910101813019F48EEB8093B3
S11302200201E09AFF91EF91BF91AF919F918F915D
S11302307F916F915F914F913F912F910F900FBEDE
S11302400F901F9018951F920F920FB60F921124C2
S11302502F933F934F935F936F937F938F939F93CA
S1130260AF93BF93EF93FF9362E08AEF90E00E9415
S1130270C500809100018F5F80930001809100018F
S1130280823030F01092000186E48093020107C0AE
S113029080910001813019F48CE880930201E19A85
S11302A0FF91EF91BF91AF919F918F917F916F914A
S11302B05F914F913F912F910F900FBE0F901F9020
S10902C01895F894FFCF2D
S9030000FC
