S01F000053746570706572536F6E61725472616E736D69747465722E7372656382
S11300000C9434000C9446000C9471020C94460039
S11300100C9446000C9446000C9446000C94460044
S11300200C9446000C9446000C9446000C94460034
S11300300C9446000C9446000C9446000C94460024
S11300400C9446000C9446000C9446000C94460014
S11300500C9446000C9446000C9446000C94460004
S11300600C9446000C94460011241FBECFEFD8E038
S1130070DEBFCDBF21E0A0E0B1E001C01D92A630FB
S1130080B207E1F70E940B020C94AC020C9400003E
S113009088E18093C10086E08093C20087E6809364
S11300A0C4000895E0ECF0E0908195FFFDCF8093CB
S11300B0C6000895CF93DF931F92CDB7DEB789832F
S11300C01092800010928500109284008981823001
S11300D069F018F4813031F017C0833059F084305E
S11300E079F012C082E08093810007C083E080939E
S11300F0810003C084E080938100E4E8F0E008C05C
S113010085E080938100F9CF81E080938000F5CF72
S1130110808191818A3F9105D8F3109281000F90DC
S1130120DF91CF910895CF93DF9300D01F92CDB785
S1130130DEB79A8389836B8389819A81181619069D
S11301409CF48B810E945A0080910201813210F04C
S11301501A82198289819A8101979A838983898174
S11301609A81181619066CF30F900F900F90DF9177
S1130170CF9108950F931F93CF938C01419862E020
S113018085E090E00E94930088B1C8E08C2788B98C
S113019061E081E090E00E94930088B1C827C8B96B
S11301A061E081E090E00E949300C8010196CF9144
S11301B01F910F9108950F931F93CF938C01419A30
S11301C062E085E090E00E94930088B1C8E08C274B
S11301D088B961E081E090E00E94930088B1C8276B
S11301E0C8B961E081E090E00E949300C8010197E2
S11301F0CF911F910F910895209100013091010139
S11302002115310509F050C0893C21E0920724F4FE
S11302108BE98093030108958F3E21E0920724F433
S113022085EA809303010895853122E0920724F43E
S11302308FEA8093030108958B3322E0920724F41C
S113024089EB809303010895813622E0920724F418
S113025083EC809303010895873822E0920724F405
S11302608DEC8093030108958D3A22E0920724F4E3
S113027087ED809303010895833D22E0920724F4DF
S113028081EE809303010895893F22E0920724F4CC
S11302908BEE809303010895813293400CF054C097
S11302A085EF8093030108952130310509F04CC096
S11302B08732910524F48DE28093030108958D34EF
S11302C0910524F487E3809303010895833791050E
S11302D024F481E48093030108958939910524F479
S11302E08BE48093030108958F3B910524F485E505
S11302F0809303010895853E910524F48FE580934E
S1130300030108958B3021E0920724F489E6809359
S113031003010895813321E0920724F483E7809355
S113032003010895873521E0920724F48DE7809333
S1130330030108958D37914024F487E880930301E5
S1130340089581E9809303010895EF92FF921F932A
S1130350CF93DF93EC01E0ECF0E080818823ECF7AD
S11303608091C60080930201843260F485E080931A
S113037003010E945200CE010E94FC0080910301FF
S11303800E945200809102019CED980F9634C0F4B3
S11303901FE0C0ECD0E00F2EF6ECEF2EF12CF02D88
S11303A010930301812F0E94520088818823ECF767
S11303B0F7018081809302019CED980F963480F3BD
S11303C08A56863440F489E1809303010E945200E6
S11303D085E08093030180910201803BB0F013E239
S11303E0C0ECD0E00F2EF6ECEF2EF12CF02D109394
S11303F00301812F0E94520088818823ECF7F701C2
S1130400808180930201803B90F7DF91CF911F910F
S1130410FF90EF90089587EF8AB98FEF87B980E353
S113042088B988E08093690082E08DBB78940E944B
S1130430480000E010E0C0ECD0E00F2EF6ECEF2E08
S1130440F12CF02DCC24C394D12C809103010E9473
S1130450520088818823ECF7F701808180930201A0
S11304600F2EF0E2AF2EF3E0BF2EF02D109201011B
S113047010920001C8010E94BA008C0190930501FA
S11304808093040188818823ECF7F70180818093AD
S11304900201C8010E94A501F1E0AF1AB10831F7C9
S11304A00F2EF0E2AF2EF3E0BF2EF02DD09201011B
S11304B0C0920001C8010E94DB008C0190930501E9
S11304C08093040188818823ECF7F701808180936D
S11304D00201C8010E94A501F1E0AF1AB10831F789
S11304E0B4CF1F920F920FB60F9211242F933F9304
S11304F04F935F936F937F938F939F93AF93BF9328
S1130500EF93FF93E0ECF0E080818823ECF7809197
S1130510C6008093020180910401909105010E941C
S1130520A501809103010E94520062E088EE93E0ED
S11305300E949300E19AFF91EF91BF91AF919F9137
S11305408F917F916F915F914F913F912F910F9078
S10F05500FBE0F901F901895F894FFCF79
S9030000FC
