:100000000C9434000C9451000C94BD000C945100DD
:100010000C9451000C9451000C9451000C9451001C
:100020000C9451000C9451000C9451000C9451000C
:100030000C9451000C9451000C9451000C945100FC
:100040000C9451000C9451000C9451000C945100EC
:100050000C9451000C9451000C9451000C945100DC
:100060000C9451000C94510011241FBECFEFD8E026
:10007000DEBFCDBF11E0A0E0B1E0E4E9F4E002C0F2
:1000800005900D92A230B107D9F721E0A2E0B1E0CE
:1000900001C01D92A430B207E1F70E9487010C94C1
:1000A00048020C94000080E18093C10086E08093B8
:1000B000C20087E68093C4000895CF93DF931F9218
:1000C000CDB7DEB789831092800010928500109220
:1000D00084008981823069F018F4813031F017C0D2
:1000E000833059F0843079F012C082E0809381002F
:1000F00007C083E08093810003C084E08093810087
:10010000E4E8F0E008C085E080938100F9CF81E069
:1001100080938000F5CF808191818A3F9105D8F34B
:10012000109281000F90DF91CF910895CF93DF93CC
:1001300000D01F92CDB7DEB79A8389836B83898104
:100140009A81181619069CF48B810E945D0080919B
:100150000001813210F01A82198289819A810197F7
:100160009A83898389819A81181619066CF30F90F6
:100170000F900F90DF91CF9108951F920F920FB6BD
:100180000F9211242F933F934F935F936F937F931D
:100190008F939F93AF93BF93EF93FF93E0ECF0E0C7
:1001A00080818823ECF78091C600809300018091C4
:1001B0000201909103018930914034F462E08AEFAA
:1001C00090E00E94960014C080910201909103017A
:1001D000813192403CF45E9862E08AEF90E00E94A8
:1001E000960006C05D9862E08AEF90E00E9496005B
:1001F0008BB1876F8BB980910001843218F48FEF37
:1002000087BD88BD809100019CED980F963490F4D5
:10021000E0ECF0E0A6ECB0E080818823ECF78C9174
:100220008093000117BC18BC809100019CED980FD1
:10023000963490F38A56863410F417BC18BC80911B
:1002400000018F3A80F0E0ECF0E0A6ECB0E08081B5
:100250008823ECF78C918093000117BC18BC809127
:1002600000018F3AA0F7E19AFF91EF91BF91AF9112
:100270009F918F917F916F915F914F913F912F91BE
:100280000F900FBE0F901F9018950F931F93CF9351
:100290008C01419862E085E090E00E94960088B170
:1002A000C8E08C2788B961E081E090E00E94960068
:1002B00088B1C827C8B961E081E090E00E9496004B
:1002C000C8010196CF911F910F9108950F931F932D
:1002D000CF938C01419A62E085E090E00E94960005
:1002E00088B1C8E08C2788B961E081E090E00E9485
:1002F000960088B1C827C8B961E081E090E00E940B
:100300009600C8010197CF911F910F9108958FEF2B
:1003100084B987B997EF9AB92AEF25B924E328B9A8
:100320009BB998E09093690092E09DBB789487BD5B
:1003300088BD83EA84BD83E085BD0E94530020E030
:1003400030E0C0ECD0E006EC10E0DD24DA948881E7
:100350008823ECF7F8018081809300010F2EF0E2F2
:10036000EF2EF3E0FF2EF02DC9010E9445019C0104
:10037000909303018093020188818823ECF7F801B0
:10038000808180930001843210F4D7BCD8BC909156
:1003900000018CED890F863478F498819923ECF76D
:1003A000F80180818093000117BC18BC9091000176
:1003B0008CED890F863488F39A56963410F417BC66
:1003C00018BC809100018F3A68F098819923ECF76E
:1003D000F80180818093000117BC18BC8091000156
:1003E0008F3A98F7F1E0EF1AF10809F0BDCF888154
:1003F0008823ECF7F8018081809300010F2EF0E252
:10040000EF2EF3E0FF2EF02DC9010E9466019C0142
:10041000909303018093020188818823ECF7F8010F
:10042000808180930001843210F4D7BCD8BC9091B5
:1004300000018CED890F863478F498819923ECF7CC
:10044000F80180818093000117BC18BC90910001D5
:100450008CED890F863488F39A56963410F417BCC5
:1004600018BC809100018F3A68F098819923ECF7CD
:10047000F80180818093000117BC18BC80910001B5
:100480008F3A98F7F1E0EF1AF10809F0BDCF5FCF8E
:04049000F894FFCF0E
:02049400320034
:00000001FF
