:100000000C9434000C94E2000C9451000C945100B8
:100010000C9451000C9451000C9451000C9451001C
:100020000C9451000C9451000C9451000C9451000C
:100030000C9451000C9451000C9451000C945100FC
:100040000C9451000C9451000C9451000C945100EC
:100050000C9451000C9451000C9451000C945100DC
:100060000C9451000C94510011241FBECFEFD8E026
:10007000DEBFCDBF11E0A0E0B1E0E2E6F2E002C0F9
:1000800005900D92A230B107D9F721E0A2E0B1E0CE
:1000900001C01D92A430B207E1F70E9465000C94E4
:1000A0002F010C94000088E08093C10086E08093CB
:1000B000C20087E68093C4000895E0ECF0E09081F0
:1000C00095FFFDCF8093C600089583EF8AB98FEF27
:1000D00084B985B91092640087E880937A0080E63D
:1000E00080937C008AE08093690081E08DBB83E887
:1000F00084BD83E085BD78940E9453008091020105
:100100000E945D00809100019091010185B9F6CFB8
:10011000CF93DF931F92CDB7DEB789831092800013
:1001200010928500109284008981823069F018F461
:10013000813031F017C0833059F0843079F012C02B
:1001400082E08093810007C083E08093810003C038
:1001500084E080938100E4E8F0E008C085E08093CB
:100160008100F9CF81E080938000F5CF808191817B
:100170008A3F9105D8F3109281000F90DF91CF91C3
:100180000895CF93DF9300D01F92CDB7DEB79A8347
:1001900089836B8389819A81181619066CF48B8187
:1001A0000E94880089819A8101979A838983898135
:1001B0009A81181619069CF30F900F900F90DF91FB
:1001C000CF9108951F920F920FB60F9211242F9383
:1001D0003F934F935F936F937F938F939F93AF93CF
:1001E000BF93EF93FF9362E08AEF90E00E94C1001B
:1001F000809103018F5F80930301823028F0109279
:100200000301109202010CC0813051F48CED8093F7
:10021000020115B862E08AEF90E00E94C10007C0B9
:100220008FEF85B962E08AEF90E00E94C10085B14E
:1002300090E09093010180930001E09AFF91EF918B
:10024000BF91AF919F918F917F916F915F914F91EE
:100250003F912F910F900FBE0F901F901895F8941B
:02026000FFCFCE
:02026200010099
:00000001FF
