S01000006C6162395F7370692E7372656301
S11300000C9434000C943E000C943E000C943E007E
S11300100C943E000C943E000C943E000C943E0064
S11300200C943E000C943E000C943E000C943E0054
S11300300C943E000C943E000C943E000C943E0044
S11300400C943E000C943E000C943E000C943E0034
S11300500C943E000C943E000C943E000C943E0024
S11300600C943E000C943E0011241FBECFEFD8E048
S1130070DEBFCDBF0E94A7000C941D010C940000AC
S11300802A988EBD0DB407FEFDCF6EBD0DB407FEDC
S1130090FDCF2A9A80E090E00895CF93DF931F92DA
S11300A0CDB7DEB78983109280001092850010923C
S11300B084008981823069F018F4813031F017C0EE
S11300C0833059F0843079F012C082E0809381004B
S11300D007C083E08093810003C084E080938100A3
S11300E0E4E8F0E008C085E080938100F9CF81E086
S11300F080938000F5CF808191818A3F9105D8F368
S1130100109281000F90DF91CF910895CF93DF93E8
S113011000D01F92CDB7DEB79A8389836B83898120
S11301209A81181619066CF48B810E944D008981FE
S11301309A8101979A83898389819A81181619066D
S11301409CF30F900F900F90DF91CF91089581E56C
S11301508CBD8CE284B96FEF89E00E94400063E0BB
S11301608BE00E94400061E08CE00E9440006FEF51
S11301708AE00E94400068E081E00E94400062E062
S113018088EE93E00E94860060E08CE00E944000CC
S113019062E088EE93E00E94860061E08CE00E94B9
S11301A0400060E081E00E94400062E088EE93E05D
S11301B00E94860060E08CE00E94400062E088EECD
S11301C093E00E94860061E08CE00E94400060E0C1
S11301D081E00E94400062E088EE93E00E94860085
S11301E060E08CE00E94400062E088EE93E00E94B0
S11301F0860061E08CE00E94400068E081E00E949B
S1130200400062E088EE93E00E94860060E08CE0AB
S11302100E94400062E088EE93E00E94860061E064
S11302208CE00E94400065E081E00E94400062E0B2
S111023088E893E10E9486009ECFF894FFCFE9
S9030000FC
