S00E00006D6F746F72732E7372656372
S11300000C9434000C9446000C9446000C94460066
S11300100C9446000C9446000C9446000C94460044
S11300200C9446000C9446000C9446000C94460034
S11300300C9446000C9446000C9446000C94460024
S11300400C9446000C9446000C9446000C94460014
S11300500C9446000C9446000C9446000C94460004
S11300600C9446000C94460011241FBECFEFD8E038
S1130070DEBFCDBF21E0A0E0B1E001C01D92A03001
S1130080B207E1F70E9448000C9454000C9400005D
S11300908FEF8AB980EF8BB917BC18BC83EA84BD93
S10F00A083E085BD589AFFCFF894FFCF91
S9030000FC
