S00E00006D6F746F72732E7372656372
S11300000C9434000C9446000C9446000C94460066
S11300100C9446000C9446000C9446000C94460044
S11300200C9446000C9446000C9446000C94460034
S11300300C9446000C9446000C9446000C94460024
S11300400C9446000C9446000C9446000C94460014
S11300500C9446000C9446000C9446000C94460004
S11300600C9446000C94460011241FBECFEFD8E038
S1130070DEBFCDBF21E0A0E0B1E001C01D92A03001
S1130080B207E1F70E9448000C9459000C94000058
S11300908FEF87B980EF88B98EEF8AB91BB817BC88
S11300A018BC83EA84BD83E085BD409A84E688BD9C
S10900B0FECFF894FFCF1F
S9030000FC
