S020000053746570706572536F6E61724C6F636174696F6E546573742E7372656345
S11300000C9434000C9446000C94B2000C944600FA
S11300100C9446000C9446000C9446000C94460044
S11300200C9446000C9446000C9446000C94460034
S11300300C9446000C9446000C9446000C94460024
S11300400C9446000C9446000C9446000C94460014
S11300500C9446000C9446000C9446000C94460004
S11300600C9446000C94460011241FBECFEFD8E038
S1130070DEBFCDBF21E0A0E0B1E001C01D92A330FE
S1130080B207E1F70E943B010C94EF010C940000CD
S113009080E18093C10086E08093C20087E680936C
S11300A0C4000895CF93DF931F92CDB7DEB7898341
S11300B01092800010928500109284008981823011
S11300C069F018F4813031F017C0833059F084306E
S11300D079F012C082E08093810007C083E08093AE
S11300E0810003C084E080938100E4E8F0E008C06C
S11300F085E080938100F9CF81E080938000F5CF83
S1130100808191818A3F9105D8F3109281000F90EC
S1130110DF91CF910895CF93DF9300D01F92CDB795
S1130120DEB79A8389836B8389819A8118161906AD
S11301309CF48B810E94520080910001813210F066
S11301401A82198289819A8101979A838983898184
S11301509A81181619066CF30F900F900F90DF9187
S1130160CF9108951F920F920FB60F9211242F93DF
S11301703F934F935F936F937F938F939F93AF932B
S1130180BF93EF93FF938091010190910201893015
S113019091403CF45F9862E088EE93E00E948B000B
S11301A014C08091010190910201813192403CF48C
S11301B05E9862E088EE93E00E948B0006C05D9832
S11301C062E088EE93E00E948B008BB1876F8BB95D
S11301D0FF91EF91BF91AF919F918F917F916F911B
S11301E05F914F913F912F910F900FBE0F901F90F1
S11301F018950F931F93CF938C01419862E085E08B
S113020090E00E948B0088B1C8E08C2788B961E037
S113021081E090E00E948B0088B1C827C8B961E0F2
S113022081E090E00E948B00C8010196CF911F915C
S11302300F9108950F931F93CF938C01419A62E01D
S113024085E090E00E948B0088B1C8E08C2788B9D3
S113025061E081E090E00E948B0088B1C827C8B9B2
S113026061E081E090E00E948B00C8010197CF918A
S11302701F910F9108958FEF84B987B987EF8AB9D9
S11302809DE795B994E398B98BB988E080936900A8
S113029082E08DBB78940E94480020E030E0C0ECFE
S11302A0D0E006EC10E00F2EFDEFBF2EF02D0F2E48
S11302B0FBEFEF2EF02D0F2EFFEEFF2EF02D888199
S11302C08823ECF7F8018081809300010F2EF0E27F
S11302D0CF2EF3E0DF2EF02D0F2EF7EFAF2EF02D03
S11302E0C9010E94F9009C019093020180930101CD
S11302F088818823ECF7F80180818093000184329F
S113030008F4B5B8809100019CED980F963460F420
S1130310E5B898819923ECF7F80180818093000176
S11303209CED980F9634A0F38A56863408F4A5B849
S1130330809100018F3A50F0F5B898819923ECF739
S1130340F8018081809300018F3AB0F7F1E0CF1A71
S1130350D10831F60F2EF0E2CF2EF3E0DF2EF02D90
S11303600F2EF7EFAF2EF02DC9010E941A019C0148
S1130370909302018093010188818823ECF7F801AE
S1130380808180930001843208F4B5B89091000113
S11303908CED890F863460F4E5B898819923ECF7E5
S11303A0F8019081909300018CED890F8634A0F3BD
S11303B09A56963408F4A5B8809100018F3A50F00B
S11303C0F5B898819923ECF7F801808180930001B6
S11303D08F3AB0F7F1E0CF1AD10831F670CFF89424
S10503E0FFCF49
S9030000FC
