S020000053746570706572536F6E61724C6F636174696F6E546573742E7372656345
S11300000C9434000C9451000C94B7000C945100DF
S11300100C9451000C9451000C9451000C94510018
S11300200C9451000C9451000C9451000C94510008
S11300300C9451000C9451000C9451000C945100F8
S11300400C9451000C9451000C9451000C945100E8
S11300500C9451000C9451000C9451000C945100D8
S11300600C9451000C94510011241FBECFEFD8E022
S1130070DEBFCDBF11E0A0E0B1E0EAEDF3E002C0E5
S113008005900D92A230B107D9F721E0A2E0B1E0CA
S113009001C01D92A430B207E1F70E9440010C9404
S11300A0EB010C94000080E18093C10086E0809312
S11300B0C20087E68093C4000895CF93DF931F9214
S11300C0CDB7DEB78983109280001092850010921C
S11300D084008981823069F018F4813031F017C0CE
S11300E0833059F0843079F012C082E0809381002B
S11300F007C083E08093810003C084E08093810083
S1130100E4E8F0E008C085E080938100F9CF81E065
S113011080938000F5CF808191818A3F9105D8F347
S1130120109281000F90DF91CF910895CF93DF93C8
S113013000D01F92CDB7DEB79A8389836B83898100
S11301409A81181619066CF48B810E945D008981CE
S11301509A8101979A83898389819A81181619064D
S11301609CF30F900F900F90DF91CF9108951F9201
S11301700F920FB60F9211242F933F934F935F93D7
S11301806F937F938F939F93AF93BF93EF93FF935B
S11301908091020190910301893091403CF45F9871
S11301A062E088EE93E00E94960014C08091020100
S11301B090910301813192403CF45E9862E088EEB4
S11301C093E00E94960006C05D9862E088EE93E09A
S11301D00E9496008BB1876F8BB9FF91EF91BF910D
S11301E0AF919F918F917F916F915F914F913F91CB
S11301F02F910F900FBE0F901F9018950F931F9380
S1130200CF938C01419862E085E090E00E949600D3
S113021088B1C8E08C2788B961E081E090E00E9451
S1130220960088B1C827C8B961E081E090E00E94D7
S11302309600C8010196CF911F910F9108950F93D5
S11302401F93CF938C01419A62E085E090E00E9475
S1130250960088B1C8E08C2788B961E081E090E01D
S11302600E94960088B1C827C8B961E081E090E097
S11302700E949600C8010197CF911F910F91089594
S11302808FEF84B987B997EF9AB985B984E388B9B0
S11302909BB988E08093690082E08DBB78940E94CA
S11302A0530020E030E0C0ECD0E006EC10E00F2E6C
S11302B0FDEFBF2EF02D0F2EFBEFEF2EF02D0F2EA6
S11302C0FFEEFF2EF02D88818823ECF7F801808162
S11302D0809300010F2EF0E2CF2EF3E0DF2EF02DFD
S11302E00F2EF7EFAF2EF02DC9010E94FE009C01E6
S11302F0909303018093020180910001843208F4F9
S1130300B5B8809100019CED980F963460F4E5B87F
S113031098819923ECF7F8018081809300019CED8A
S1130320980F9634A0F38A56863408F4A5B88091C1
S113033000018F3A50F0F5B898819923ECF7F80151
S11303408081809300018F3AB0F7F1E0CF1AD10891
S113035059F60F2EF0E2CF2EF3E0DF2EF02D0F2E04
S1130360F7EFAF2EF02DC9010E941F019C0190935D
S1130370030180930201F80180818093000184329B
S113038008F4B5B8909100018CED890F863460F4BF
S1130390E5B898819923ECF7F801908190930001D6
S11303A08CED890F8634A0F39A56963408F4A5B8D8
S11303B0809100018F3A50F0F5B898819923ECF7B9
S11303C0F8018081809300018F3AB0F7F1E0CF1AF1
S10D03D0D10849F678CFF894FFCF66
S10503DA3200EB
S9030000FC
