:100000000C9434000C9446000C94A2000C9446000E
:100010000C9446000C9446000C9446000C94460048
:100020000C9446000C9446000C9446000C94460038
:100030000C9446000C9446000C9446000C94460028
:100040000C9446000C9446000C9446000C94460018
:100050000C9446000C9446000C9446000C94460008
:100060000C9446000C94460011241FBECFEFD8E03C
:10007000DEBFCDBF21E0A0E0B1E001C01D92A23003
:10008000B207E1F70E942B010C944F010C94000081
:10009000CF93DF931F92CDB7DEB789831092800094
:1000A00010928500109284008981823069F018F4E2
:1000B000813031F017C0833059F0843079F012C0AC
:1000C00082E08093810007C083E08093810003C0B9
:1000D00084E080938100E4E8F0E008C085E080934C
:1000E0008100F9CF81E080938000F5CF80819181FC
:1000F0008A3F9105D8F3109281000F90DF91CF9144
:100100000895CF93DF9300D01F92CDB7DEB79A83C7
:1001100089836B8389819A81181619066CF48B8107
:100120000E94480089819A8101979A8389838981F5
:100130009A81181619069CF30F900F900F90DF917B
:10014000CF9108951F920F920FB60F9211242F9303
:100150003F934F935F936F937F938F939F93AF934F
:10016000BF93EF93FF93809100019091010189303B
:1001700091403CF45F9862E088EE93E00E94810039
:1001800014C08091000190910101813192403CF4B2
:100190005E9862E088EE93E00E94810006C05D9860
:1001A00062E088EE93E00E9481008BB1876F8BB98B
:1001B000FF91EF91BF91AF919F918F917F916F913F
:1001C0005F914F913F912F910F900FBE0F901F9015
:1001D00018950F931F93CF938C01419862E085E0AF
:1001E00090E00E94810088B1C8E08C2788B961E066
:1001F00081E090E00E94810088B1C827C8B961E021
:1002000081E090E00E948100C8010196CF911F918A
:100210000F9108950F931F93CF938C01419A62E041
:1002200085E090E00E94810088B1C8E08C2788B901
:1002300061E081E090E00E94810088B1C827C8B9E0
:1002400061E081E090E00E948100C8010197CF91B8
:100250001F910F9108958FEF84B987EF8AB994E3C6
:1002600095B98BB988E08093690082E08DBB789462
:1002700080E090E0C0E2D3E00E94E90090930101A9
:10028000809300012197C1F7C0E2D3E00E940A01E8
:1002900090930101809300012197C1F7EBCFF8946F
:0202A000FFCF8E
:00000001FF
