S00F0000737465707065722E7372656312
S11300000C9434000C9446000C9446000C94460066
S11300100C9446000C9446000C9446000C94460044
S11300200C9446000C9446000C9446000C94460034
S11300300C9446000C9446000C9446000C94460024
S11300400C9446000C9446000C9446000C94460014
S11300500C9446000C9446000C9446000C94460004
S11300600C9446000C94460011241FBECFEFD8E038
S1130070DEBFCDBF21E0A0E0B1E001C01D92A230FF
S1130080B207E1F70E94E8000C94FD000C94000014
S1130090CF93DF931F92CDB7DEB789831092800090
S11300A010928500109284008981823069F018F4DE
S11300B0813031F017C0833059F0843079F012C0A8
S11300C082E08093810007C083E08093810003C0B5
S11300D084E080938100E4E8F0E008C085E0809348
S11300E08100F9CF81E080938000F5CF80819181F8
S11300F08A3F9105D8F3109281000F90DF91CF9140
S11301000895CF93DF9300D01F92CDB7DEB79A83C3
S113011089836B8389819A81181619066CF48B8103
S11301200E94480089819A8101979A8389838981F1
S11301309A81181619069CF30F900F900F90DF9177
S1130140CF910895CF938091000190910101019680
S11301509093010180930001419862E085E090E072
S11301600E94810088B1C8E08C2788B962E082E3EC
S113017090E00E94810088B1C827C8B962E082E398
S113018090E00E948100CF910895CF938091000167
S11301909091010101979093010180930001419A8C
S11301A062E085E090E00E94810088B1C8E08C277D
S11301B088B962E082E390E00E94810088B1C82798
S11301C0C8B962E082E390E00E948100CF91089573
S11301D08FEF87B918B8C4E1D0E00E94C500219719
S11301E0E1F762E080ED97E00E948100C4E1D0E095
S11101F00E94A200219779F3FBCFF894FFCF71
S9030000FC
