S00F0000737465707065722E7372656312
S11300000C9434000C943E000C943E000C943E007E
S11300100C943E000C943E000C943E000C943E0064
S11300200C943E000C943E000C943E000C943E0054
S11300300C943E000C943E000C943E000C943E0044
S11300400C943E000C943E000C943E000C943E0034
S11300500C943E000C943E000C943E000C943E0024
S11300600C943E000C943E0011241FBECFEFD8E048
S1130070DEBFCDBF0E949A000C94AA000C9400002D
S1130080CF93DF931F92CDB7DEB7898310928000A0
S113009010928500109284008981823069F018F4EE
S11300A0813031F017C0833059F0843079F012C0B8
S11300B082E08093810007C083E08093810003C0C5
S11300C084E080938100E4E8F0E008C085E0809358
S11300D08100F9CF81E080938000F5CF8081918108
S11300E08A3F9105D8F3109281000F90DF91CF9150
S11300F00895CF93DF9300D01F92CDB7DEB79A83D4
S113010089836B8389819A81181619066CF48B8113
S11301100E94400089819A8101979A838983898109
S11301209A81181619069CF30F900F900F90DF9187
S1130130CF9108958FEF87B9CFEFC8B962E08AE015
S113014090E00E947900439862E08AE090E00E9487
S10B01507900F3CFF894FFCF0E
S9030000FC
