:100000000C9434000C9446000C9446000C9446006A
:100010000C9446000C9446000C9446000C94460048
:100020000C9446000C9446000C9446000C94460038
:100030000C9446000C9446000C9446000C94460028
:100040000C9446000C9446000C9446000C94460018
:100050000C9446000C9446000C9446000C94460008
:100060000C9446000C94460011241FBECFEFD8E03C
:10007000DEBFCDBF21E0A0E0B1E001C01D92A13004
:10008000B207E1F70E9452000C9470000C9400003B
:1000900080E18093C10086E08093C20087E6809370
:1000A000C400089517B883EF8AB98BB98FEF84B96C
:1000B00083E085B918B898EC97BD98BD93EA94BDD4
:1000C00085BD0E944800E0ECF0E080818823ECF7D9
:1000D0008091C6008093000186B117BC18BCFCCF8C
:0400E000F894FFCFC2
:00000001FF
