S0190000576972656C6573735F52656369657665722E7372656329
S11300000C9434000C9446000C9446000C94460066
S11300100C9446000C9446000C9446000C94460044
S11300200C9446000C9446000C9446000C94460034
S11300300C9446000C9446000C9446000C94460024
S11300400C9446000C9446000C9446000C94460014
S11300500C9446000C9446000C9446000C94460004
S11300600C9446000C94460011241FBECFEFD8E038
S1130070DEBFCDBF21E0A0E0B1E001C01D92A13000
S1130080B207E1F70E9452000C946A000C9400003D
S113009080E18093C10086E08093C20087E680936C
S11300A0C40008958FEF8AB984B985B98BB90E94C9
S11300B04800E0ECF0E0A6ECB0E09FEF80818823FC
S11300C0ECF78C91809300018E3610F495B9F6CF3D
S10B00D015B8F4CFF894FFCF3A
S9030000FC
